{
  "abi": [
    {
      "type": "constructor",
      "inputs": [],
      "stateMutability": "nonpayable"
    },
    {
      "type": "function",
      "name": "emitAnotherTrigger",
      "inputs": [
        {
          "name": "a",
          "type": "uint256",
          "internalType": "uint256"
        },
        {
          "name": "b",
          "type": "uint256",
          "internalType": "uint256"
        },
        {
          "name": "c",
          "type": "uint256",
          "internalType": "uint256"
        },
        {
          "name": "data",
          "type": "string",
          "internalType": "string"
        }
      ],
      "outputs": [],
      "stateMutability": "nonpayable"
    },
    {
      "type": "function",
      "name": "emitTrigger",
      "inputs": [
        {
          "name": "x",
          "type": "uint16",
          "internalType": "uint16"
        }
      ],
      "outputs": [],
      "stateMutability": "nonpayable"
    },
    {
      "type": "event",
      "name": "AnotherTrigger",
      "inputs": [
        {
          "name": "a",
          "type": "uint256",
          "indexed": true,
          "internalType": "uint256"
        },
        {
          "name": "b",
          "type": "uint256",
          "indexed": true,
          "internalType": "uint256"
        },
        {
          "name": "c",
          "type": "uint256",
          "indexed": true,
          "internalType": "uint256"
        },
        {
          "name": "data",
          "type": "string",
          "indexed": false,
          "internalType": "string"
        }
      ],
      "anonymous": false
    },
    {
      "type": "event",
      "name": "Trigger",
      "inputs": [
        {
          "name": "x",
          "type": "uint16",
          "indexed": false,
          "internalType": "uint16"
        }
      ],
      "anonymous": false
    }
  ],
  "bytecode": {
    "object": "0x608060405234801561001057600080fd5b50604051600081527f166a7d625edff952ff346d1bca4edef10254353f72916b7fb072d55d0f97b5449060200160405180910390a1610270806100546000396000f3fe608060405234801561001057600080fd5b50600436106100365760003560e01c806316d04e0d1461003b578063931919ea14610050575b600080fd5b61004e6100493660046100dd565b610063565b005b61004e61005e36600461011e565b61009d565b60405161ffff821681527f166a7d625edff952ff346d1bca4edef10254353f72916b7fb072d55d0f97b5449060200160405180910390a150565b8183857f2cb351db58390c313534745d80b5f0abff9230502a6374a97b9caa76b31c5d8a846040516100cf91906101ec565b60405180910390a450505050565b6000602082840312156100ef57600080fd5b813561ffff8116811461010157600080fd5b9392505050565b634e487b7160e01b600052604160045260246000fd5b6000806000806080858703121561013457600080fd5b843593506020850135925060408501359150606085013567ffffffffffffffff8082111561016157600080fd5b818701915087601f83011261017557600080fd5b81358181111561018757610187610108565b604051601f8201601f19908116603f011681019083821181831017156101af576101af610108565b816040528281528a60208487010111156101c857600080fd5b82602086016020830137600060208483010152809550505050505092959194509250565b600060208083528351808285015260005b81811015610219578581018301518582016040015282016101fd565b506000604082860101526040601f19601f830116850101925050509291505056fea264697066735822122051969b527a63ab67686e528eb2de0bd24f1a84835193586c0318cfb81b2cb0ac64736f6c63430008130033",
    "linkReferences": {}
  },
  "methodIdentifiers": {
    "emitAnotherTrigger(uint256,uint256,uint256,string)": "931919ea",
    "emitTrigger(uint16)": "16d04e0d"
  },
  "id": 0
}