{"abi":[{"type":"constructor","inputs":[],"stateMutability":"nonpayable"},{"type":"function","name":"emitAnotherTrigger","inputs":[{"name":"a","type":"uint256","internalType":"uint256"},{"name":"b","type":"uint256","internalType":"uint256"},{"name":"c","type":"uint256","internalType":"uint256"},{"name":"data","type":"string","internalType":"string"}],"outputs":[],"stateMutability":"nonpayable"},{"type":"function","name":"emitTrigger","inputs":[{"name":"x","type":"uint16","internalType":"uint16"}],"outputs":[],"stateMutability":"nonpayable"},{"type":"event","name":"AnotherTrigger","inputs":[{"name":"a","type":"uint256","indexed":true,"internalType":"uint256"},{"name":"b","type":"uint256","indexed":true,"internalType":"uint256"},{"name":"c","type":"uint256","indexed":true,"internalType":"uint256"},{"name":"data","type":"string","indexed":false,"internalType":"string"}],"anonymous":false},{"type":"event","name":"Trigger","inputs":[{"name":"x","type":"uint16","indexed":false,"internalType":"uint16"}],"anonymous":false}],"bytecode":{"object":"0x608060405234801561000f575f80fd5b507f166a7d625edff952ff346d1bca4edef10254353f72916b7fb072d55d0f97b5445f60405161003f919061009b565b60405180910390a16100b4565b5f819050919050565b5f61ffff82169050919050565b5f819050919050565b5f61008561008061007b8461004c565b610062565b610055565b9050919050565b6100958161006b565b82525050565b5f6020820190506100ae5f83018461008c565b92915050565b610444806100c15f395ff3fe608060405234801561000f575f80fd5b5060043610610034575f3560e01c806316d04e0d14610038578063931919ea14610054575b5f80fd5b610052600480360381019061004d9190610132565b610070565b005b61006e600480360381019061006991906102cc565b6100aa565b005b7f166a7d625edff952ff346d1bca4edef10254353f72916b7fb072d55d0f97b5448160405161009f919061035b565b60405180910390a150565b8183857f2cb351db58390c313534745d80b5f0abff9230502a6374a97b9caa76b31c5d8a846040516100dc91906103ee565b60405180910390a450505050565b5f604051905090565b5f80fd5b5f80fd5b5f61ffff82169050919050565b610111816100fb565b811461011b575f80fd5b50565b5f8135905061012c81610108565b92915050565b5f60208284031215610147576101466100f3565b5b5f6101548482850161011e565b91505092915050565b5f819050919050565b61016f8161015d565b8114610179575f80fd5b50565b5f8135905061018a81610166565b92915050565b5f80fd5b5f80fd5b5f601f19601f8301169050919050565b7f4e487b71000000000000000000000000000000000000000000000000000000005f52604160045260245ffd5b6101de82610198565b810181811067ffffffffffffffff821117156101fd576101fc6101a8565b5b80604052505050565b5f61020f6100ea565b905061021b82826101d5565b919050565b5f67ffffffffffffffff82111561023a576102396101a8565b5b61024382610198565b9050602081019050919050565b828183375f83830152505050565b5f61027061026b84610220565b610206565b90508281526020810184848401111561028c5761028b610194565b5b610297848285610250565b509392505050565b5f82601f8301126102b3576102b2610190565b5b81356102c384826020860161025e565b91505092915050565b5f805f80608085870312156102e4576102e36100f3565b5b5f6102f18782880161017c565b94505060206103028782880161017c565b93505060406103138782880161017c565b925050606085013567ffffffffffffffff811115610334576103336100f7565b5b6103408782880161029f565b91505092959194509250565b610355816100fb565b82525050565b5f60208201905061036e5f83018461034c565b92915050565b5f81519050919050565b5f82825260208201905092915050565b5f5b838110156103ab578082015181840152602081019050610390565b5f8484015250505050565b5f6103c082610374565b6103ca818561037e565b93506103da81856020860161038e565b6103e381610198565b840191505092915050565b5f6020820190508181035f83015261040681846103b6565b90509291505056fea26469706673582212205b9d5c9f3daed1380f46af090eeea4bddb8d6bb8cfa6bcdc5d5544743c72b3a164736f6c63430008160033","linkReferences":{}},"methodIdentifiers":{"emitAnotherTrigger(uint256,uint256,uint256,string)":"931919ea","emitTrigger(uint16)":"16d04e0d"},"id":4}