{
  "abi": [
    {
      "type": "constructor",
      "inputs": [],
      "stateMutability": "nonpayable"
    },
    {
      "type": "function",
      "name": "emitTrigger",
      "inputs": [
        {
          "name": "x",
          "type": "uint16",
          "internalType": "uint16"
        }
      ],
      "outputs": [],
      "stateMutability": "nonpayable"
    },
    {
      "type": "event",
      "name": "Trigger",
      "inputs": [
        {
          "name": "x",
          "type": "uint16",
          "indexed": false,
          "internalType": "uint16"
        }
      ],
      "anonymous": false
    }
  ],
  "bytecode": {
    "object": "0x608060405234801561001057600080fd5b50604051600081527f166a7d625edff952ff346d1bca4edef10254353f72916b7fb072d55d0f97b5449060200160405180910390a160d7806100536000396000f3fe6080604052348015600f57600080fd5b506004361060285760003560e01c806316d04e0d14602d575b600080fd5b603c60383660046078565b603e565b005b60405161ffff821681527f166a7d625edff952ff346d1bca4edef10254353f72916b7fb072d55d0f97b5449060200160405180910390a150565b600060208284031215608957600080fd5b813561ffff81168114609a57600080fd5b939250505056fea264697066735822122042aa5c61dbec3095fa751fa72bfc5f7b5a396e132683182cc0ce17675009c67764736f6c63430008130033",
    "linkReferences": {}
  },
  "methodIdentifiers": {
    "emitTrigger(uint16)": "16d04e0d"
  },
  "id": 3
}