{
  "abi": [
    {
      "type": "constructor",
      "inputs": [],
      "stateMutability": "nonpayable"
    },
    {
      "type": "function",
      "name": "inc",
      "inputs": [
        {
          "name": "value",
          "type": "uint256",
          "internalType": "uint256"
        }
      ],
      "outputs": [
        {
          "name": "",
          "type": "uint256",
          "internalType": "uint256"
        }
      ],
      "stateMutability": "pure"
    },
    {
      "type": "event",
      "name": "Trigger",
      "inputs": [],
      "anonymous": false
    }
  ],
  "bytecode": {
    "object": "0x608060405234801561001057600080fd5b506040517f3d53a39550e04688065827f3bb86584cb007ab9ebca7ebd528e7301c9c31eb5d90600090a1610120806100496000396000f3fe6080604052348015600f57600080fd5b506004361060285760003560e01c8063812600df14602d575b600080fd5b603c603836600460b2565b604e565b60405190815260200160405180910390f35b6000600a821060a35760405162461bcd60e51b815260206004820152601b60248201527f63616e206f6e6c792068616e646c652076616c756573203c2031300000000000604482015260640160405180910390fd5b60ac82600160ca565b92915050565b60006020828403121560c357600080fd5b5035919050565b8082018082111560ac57634e487b7160e01b600052601160045260246000fdfea2646970667358221220ad875f460a402063be4ff63412a90d65fa24398c907d52e2a0926375442cb6f064736f6c63430008130033",
    "linkReferences": {}
  },
  "methodIdentifiers": {
    "inc(uint256)": "812600df"
  },
  "id": 2
}