{"abi":[{"type":"constructor","inputs":[],"stateMutability":"nonpayable"},{"type":"function","name":"inc","inputs":[{"name":"value","type":"uint256","internalType":"uint256"}],"outputs":[{"name":"","type":"uint256","internalType":"uint256"}],"stateMutability":"pure"},{"type":"event","name":"Trigger","inputs":[],"anonymous":false}],"bytecode":{"object":"0x608060405234801561000f575f80fd5b507f3d53a39550e04688065827f3bb86584cb007ab9ebca7ebd528e7301c9c31eb5d60405160405180910390a161024d806100495f395ff3fe608060405234801561000f575f80fd5b5060043610610029575f3560e01c8063812600df1461002d575b5f80fd5b610047600480360381019061004291906100ec565b61005d565b6040516100549190610126565b60405180910390f35b5f600a82106100a1576040517f08c379a000000000000000000000000000000000000000000000000000000000815260040161009890610199565b60405180910390fd5b6001826100ae91906101e4565b9050919050565b5f80fd5b5f819050919050565b6100cb816100b9565b81146100d5575f80fd5b50565b5f813590506100e6816100c2565b92915050565b5f60208284031215610101576101006100b5565b5b5f61010e848285016100d8565b91505092915050565b610120816100b9565b82525050565b5f6020820190506101395f830184610117565b92915050565b5f82825260208201905092915050565b7f63616e206f6e6c792068616e646c652076616c756573203c20313000000000005f82015250565b5f610183601b8361013f565b915061018e8261014f565b602082019050919050565b5f6020820190508181035f8301526101b081610177565b9050919050565b7f4e487b71000000000000000000000000000000000000000000000000000000005f52601160045260245ffd5b5f6101ee826100b9565b91506101f9836100b9565b9250828201905080821115610211576102106101b7565b5b9291505056fea26469706673582212201d5be3aca99e1d2430eee51090e4c236bedcc30e14391ebad9ca024d7255f6e464736f6c63430008160033","linkReferences":{}},"methodIdentifiers":{"inc(uint256)":"812600df"},"id":3}