{"abi":[{"type":"constructor","inputs":[],"stateMutability":"nonpayable"},{"type":"function","name":"alwaysReverts","inputs":[],"outputs":[{"name":"","type":"bool","internalType":"bool"}],"stateMutability":"pure"},{"type":"function","name":"assetOwners","inputs":[{"name":"","type":"uint256","internalType":"uint256"}],"outputs":[{"name":"","type":"address","internalType":"address"}],"stateMutability":"view"},{"type":"function","name":"assets","inputs":[{"name":"","type":"uint256","internalType":"uint256"}],"outputs":[{"name":"addr","type":"address","internalType":"address"},{"name":"amount","type":"uint256","internalType":"uint256"},{"name":"active","type":"bool","internalType":"bool"}],"stateMutability":"view"},{"type":"function","name":"balanceOf","inputs":[{"name":"account","type":"address","internalType":"address"}],"outputs":[{"name":"","type":"uint256","internalType":"uint256"}],"stateMutability":"view"},{"type":"function","name":"balances","inputs":[{"name":"","type":"address","internalType":"address"}],"outputs":[{"name":"","type":"uint256","internalType":"uint256"}],"stateMutability":"view"},{"type":"function","name":"conditionalRevert","inputs":[],"outputs":[],"stateMutability":"view"},{"type":"function","name":"counter","inputs":[],"outputs":[{"name":"","type":"uint256","internalType":"uint256"}],"stateMutability":"view"},{"type":"function","name":"emitAssetTransfer","inputs":[{"name":"assetAddr","type":"address","internalType":"address"},{"name":"amount","type":"uint256","internalType":"uint256"},{"name":"active","type":"bool","internalType":"bool"},{"name":"to","type":"address","internalType":"address"}],"outputs":[],"stateMutability":"nonpayable"},{"type":"function","name":"emitComplexAssetCreated","inputs":[{"name":"baseAddr","type":"address","internalType":"address"},{"name":"baseAmount","type":"uint256","internalType":"uint256"},{"name":"baseActive","type":"bool","internalType":"bool"},{"name":"metadataStr","type":"string","internalType":"string"},{"name":"values","type":"uint256[]","internalType":"uint256[]"},{"name":"id","type":"uint256","internalType":"uint256"}],"outputs":[],"stateMutability":"nonpayable"},{"type":"function","name":"emitTransfer","inputs":[{"name":"from","type":"address","internalType":"address"},{"name":"to","type":"address","internalType":"address"},{"name":"value","type":"uint256","internalType":"uint256"}],"outputs":[],"stateMutability":"nonpayable"},{"type":"function","name":"getAssetAmount","inputs":[{"name":"assetId","type":"uint256","internalType":"uint256"}],"outputs":[{"name":"","type":"uint256","internalType":"uint256"}],"stateMutability":"view"},{"type":"function","name":"getConstant","inputs":[],"outputs":[{"name":"","type":"uint256","internalType":"uint256"}],"stateMutability":"pure"},{"type":"function","name":"getMetadata","inputs":[{"name":"assetAddr","type":"address","internalType":"address"}],"outputs":[{"name":"","type":"string","internalType":"string"}],"stateMutability":"view"},{"type":"function","name":"getOwner","inputs":[{"name":"assetAddr","type":"address","internalType":"address"}],"outputs":[{"name":"","type":"address","internalType":"address"}],"stateMutability":"view"},{"type":"function","name":"hiddenFunction","inputs":[],"outputs":[{"name":"","type":"uint256","internalType":"uint256"}],"stateMutability":"pure"},{"type":"function","name":"incrementCounter","inputs":[],"outputs":[{"name":"","type":"uint256","internalType":"uint256"}],"stateMutability":"nonpayable"},{"type":"function","name":"isAssetActive","inputs":[{"name":"assetId","type":"uint256","internalType":"uint256"}],"outputs":[{"name":"","type":"bool","internalType":"bool"}],"stateMutability":"view"},{"type":"function","name":"metadata","inputs":[{"name":"","type":"address","internalType":"address"}],"outputs":[{"name":"","type":"string","internalType":"string"}],"stateMutability":"view"},{"type":"function","name":"setShouldRevert","inputs":[{"name":"_shouldRevert","type":"bool","internalType":"bool"}],"outputs":[],"stateMutability":"nonpayable"},{"type":"function","name":"shouldRevert","inputs":[],"outputs":[{"name":"","type":"bool","internalType":"bool"}],"stateMutability":"view"},{"type":"function","name":"sum","inputs":[{"name":"a","type":"uint256","internalType":"uint256"},{"name":"b","type":"uint256","internalType":"uint256"}],"outputs":[{"name":"","type":"uint256","internalType":"uint256"}],"stateMutability":"pure"},{"type":"function","name":"totalSupply","inputs":[],"outputs":[{"name":"","type":"uint256","internalType":"uint256"}],"stateMutability":"view"},{"type":"event","name":"AssetTransfer","inputs":[{"name":"asset","type":"tuple","indexed":false,"internalType":"struct DeclaredCallsContract.Asset","components":[{"name":"addr","type":"address","internalType":"address"},{"name":"amount","type":"uint256","internalType":"uint256"},{"name":"active","type":"bool","internalType":"bool"}]},{"name":"to","type":"address","indexed":false,"internalType":"address"},{"name":"blockNumber","type":"uint256","indexed":false,"internalType":"uint256"}],"anonymous":false},{"type":"event","name":"ComplexAssetCreated","inputs":[{"name":"complexAsset","type":"tuple","indexed":false,"internalType":"struct DeclaredCallsContract.ComplexAsset","components":[{"name":"base","type":"tuple","internalType":"struct DeclaredCallsContract.Asset","components":[{"name":"addr","type":"address","internalType":"address"},{"name":"amount","type":"uint256","internalType":"uint256"},{"name":"active","type":"bool","internalType":"bool"}]},{"name":"metadata","type":"string","internalType":"string"},{"name":"values","type":"uint256[]","internalType":"uint256[]"}]},{"name":"id","type":"uint256","indexed":false,"internalType":"uint256"}],"anonymous":false},{"type":"event","name":"Transfer","inputs":[{"name":"from","type":"address","indexed":true,"internalType":"address"},{"name":"to","type":"address","indexed":true,"internalType":"address"},{"name":"value","type":"uint256","indexed":false,"internalType":"uint256"}],"anonymous":false}],"bytecode":{"object":"0x60806040525f60055f6101000a81548160ff0219169083151502179055505f6006553480156200002d575f80fd5b506103e85f803373ffffffffffffffffffffffffffffffffffffffff1673ffffffffffffffffffffffffffffffffffffffff1681526020019081526020015f20819055506103e85f8073111111111111111111111111111111111111111173ffffffffffffffffffffffffffffffffffffffff1673ffffffffffffffffffffffffffffffffffffffff1681526020019081526020015f20819055506103e85f8073222222222222222222222222222222222222222273ffffffffffffffffffffffffffffffffffffffff1673ffffffffffffffffffffffffffffffffffffffff1681526020019081526020015f2081905550610bb8600481905550604051806060016040528073111111111111111111111111111111111111111173ffffffffffffffffffffffffffffffffffffffff168152602001606481526020016001151581525060025f600181526020019081526020015f205f820151815f015f6101000a81548173ffffffffffffffffffffffffffffffffffffffff021916908373ffffffffffffffffffffffffffffffffffffffff160217905550602082015181600101556040820151816002015f6101000a81548160ff0219169083151502179055509050503360035f600181526020019081526020015f205f6101000a81548173ffffffffffffffffffffffffffffffffffffffff021916908373ffffffffffffffffffffffffffffffffffffffff1602179055506040518060400160405280600c81526020017f546573742041737365742031000000000000000000000000000000000000000081525060015f73111111111111111111111111111111111111111173ffffffffffffffffffffffffffffffffffffffff1673ffffffffffffffffffffffffffffffffffffffff1681526020019081526020015f209081620002d89190620006f3565b50604051806060016040528073222222222222222222222222222222222222222273ffffffffffffffffffffffffffffffffffffffff16815260200160c881526020015f151581525060025f600281526020019081526020015f205f820151815f015f6101000a81548173ffffffffffffffffffffffffffffffffffffffff021916908373ffffffffffffffffffffffffffffffffffffffff160217905550602082015181600101556040820151816002015f6101000a81548160ff0219169083151502179055509050503360035f600281526020019081526020015f205f6101000a81548173ffffffffffffffffffffffffffffffffffffffff021916908373ffffffffffffffffffffffffffffffffffffffff1602179055506040518060400160405280600c81526020017f546573742041737365742032000000000000000000000000000000000000000081525060015f73222222222222222222222222222222222222222273ffffffffffffffffffffffffffffffffffffffff1673ffffffffffffffffffffffffffffffffffffffff1681526020019081526020015f209081620004889190620006f3565b50620007d7565b5f81519050919050565b7f4e487b71000000000000000000000000000000000000000000000000000000005f52604160045260245ffd5b7f4e487b71000000000000000000000000000000000000000000000000000000005f52602260045260245ffd5b5f60028204905060018216806200050b57607f821691505b602082108103620005215762000520620004c6565b5b50919050565b5f819050815f5260205f209050919050565b5f6020601f8301049050919050565b5f82821b905092915050565b5f60088302620005857fffffffffffffffffffffffffffffffffffffffffffffffffffffffffffffffff8262000548565b62000591868362000548565b95508019841693508086168417925050509392505050565b5f819050919050565b5f819050919050565b5f620005db620005d5620005cf84620005a9565b620005b2565b620005a9565b9050919050565b5f819050919050565b620005f683620005bb565b6200060e6200060582620005e2565b84845462000554565b825550505050565b5f90565b6200062462000616565b62000631818484620005eb565b505050565b5b8181101562000658576200064c5f826200061a565b60018101905062000637565b5050565b601f821115620006a757620006718162000527565b6200067c8462000539565b810160208510156200068c578190505b620006a46200069b8562000539565b83018262000636565b50505b505050565b5f82821c905092915050565b5f620006c95f1984600802620006ac565b1980831691505092915050565b5f620006e38383620006b8565b9150826002028217905092915050565b620006fe826200048f565b67ffffffffffffffff8111156200071a576200071962000499565b5b620007268254620004f3565b620007338282856200065c565b5f60209050601f83116001811462000769575f841562000754578287015190505b620007608582620006d6565b865550620007cf565b601f198416620007798662000527565b5f5b82811015620007a2578489015182556001820191506020850194506020810190506200077b565b86831015620007c25784890151620007be601f891682620006b8565b8355505b6001600288020188555050505b505050505050565b6115dd80620007e55f395ff3fe608060405234801561000f575f80fd5b5060043610610140575f3560e01c806370a08231116100b6578063cad0899b1161007a578063cad0899b14610388578063cd63468a146103b8578063cf35bdd0146103d4578063d3072d8214610406578063f13a38a614610424578063fa5441611461044257610140565b806370a08231146102e257806392eaff8314610312578063a718c0d914610342578063b4f5537d14610360578063bcd0aaf81461037e57610140565b80632ba21572116101085780632ba215721461020e5780634d6f99821461023e5780635b34b9661461025a57806361bc221a146102785780636813d787146102965780636999f843146102b257610140565b806318160ddd1461014457806322e900c21461016257806323de66511461019257806327e235e3146101ae5780632a50c146146101de575b5f80fd5b61014c610472565b6040516101599190610b16565b60405180910390f35b61017c60048036038101906101779190610b6a565b610478565b6040516101899190610baf565b60405180910390f35b6101ac60048036038101906101a79190610c22565b6104a1565b005b6101c860048036038101906101c39190610c72565b6105af565b6040516101d59190610b16565b60405180910390f35b6101f860048036038101906101f39190610c72565b6105c3565b6040516102059190610d27565b60405180910390f35b61022860048036038101906102239190610c72565b610690565b6040516102359190610d27565b60405180910390f35b61025860048036038101906102539190610d71565b61072b565b005b6102626107a3565b60405161026f9190610b16565b60405180910390f35b6102806107c3565b60405161028d9190610b16565b60405180910390f35b6102b060048036038101906102ab9190610dd5565b6107c9565b005b6102cc60048036038101906102c79190610b6a565b6107e5565b6040516102d99190610e0f565b60405180910390f35b6102fc60048036038101906102f79190610c72565b610815565b6040516103099190610b16565b60405180910390f35b61032c60048036038101906103279190610b6a565b61085a565b6040516103399190610b16565b60405180910390f35b61034a610877565b6040516103579190610b16565b60405180910390f35b610368610880565b6040516103759190610baf565b60405180910390f35b6103866108cc565b005b6103a2600480360381019061039d9190610e28565b61091d565b6040516103af9190610b16565b60405180910390f35b6103d260048036038101906103cd9190611056565b610932565b005b6103ee60048036038101906103e99190610b6a565b6109c9565b6040516103fd93929190611117565b60405180910390f35b61040e610a1a565b60405161041b9190610baf565b60405180910390f35b61042c610a2c565b6040516104399190610b16565b60405180910390f35b61045c60048036038101906104579190610c72565b610a34565b6040516104699190610e0f565b60405180910390f35b60045481565b5f60025f8381526020019081526020015f206002015f9054906101000a900460ff169050919050565b805f808573ffffffffffffffffffffffffffffffffffffffff1673ffffffffffffffffffffffffffffffffffffffff1681526020019081526020015f205f8282546104ec9190611179565b92505081905550805f808473ffffffffffffffffffffffffffffffffffffffff1673ffffffffffffffffffffffffffffffffffffffff1681526020019081526020015f205f82825461053e91906111ac565b925050819055508173ffffffffffffffffffffffffffffffffffffffff168373ffffffffffffffffffffffffffffffffffffffff167fddf252ad1be2c89b69c2b068fc378daa952ba7f163c4a11628f55a4df523b3ef836040516105a29190610b16565b60405180910390a3505050565b5f602052805f5260405f205f915090505481565b606060015f8373ffffffffffffffffffffffffffffffffffffffff1673ffffffffffffffffffffffffffffffffffffffff1681526020019081526020015f20805461060d9061120c565b80601f01602080910402602001604051908101604052809291908181526020018280546106399061120c565b80156106845780601f1061065b57610100808354040283529160200191610684565b820191905f5260205f20905b81548152906001019060200180831161066757829003601f168201915b50505050509050919050565b6001602052805f5260405f205f9150905080546106ac9061120c565b80601f01602080910402602001604051908101604052809291908181526020018280546106d89061120c565b80156107235780601f106106fa57610100808354040283529160200191610723565b820191905f5260205f20905b81548152906001019060200180831161070657829003601f168201915b505050505081565b5f60405180606001604052808673ffffffffffffffffffffffffffffffffffffffff16815260200185815260200184151581525090507fb316a05559699c6f7bf707596924f7a3dbcdda140602bdecdcf504da557b5a00818343604051610794939291906112a9565b60405180910390a15050505050565b5f60065f8154809291906107b6906112de565b9190505550600654905090565b60065481565b8060055f6101000a81548160ff02191690831515021790555050565b6003602052805f5260405f205f915054906101000a900473ffffffffffffffffffffffffffffffffffffffff1681565b5f805f8373ffffffffffffffffffffffffffffffffffffffff1673ffffffffffffffffffffffffffffffffffffffff1681526020019081526020015f20549050919050565b5f60025f8381526020019081526020015f20600101549050919050565b5f6103e7905090565b5f80600111156108c5576040517f08c379a00000000000000000000000000000000000000000000000000000000081526004016108bc9061136f565b60405180910390fd5b6001905090565b60055f9054906101000a900460ff161561091b576040517f08c379a0000000000000000000000000000000000000000000000000000000008152600401610912906113d7565b60405180910390fd5b565b5f818361092a91906111ac565b905092915050565b5f60405180606001604052808873ffffffffffffffffffffffffffffffffffffffff16815260200187815260200186151581525090505f60405180606001604052808381526020018681526020018581525090507f22bbb405fdf09441de4475115f78ff52520e05a54678d2e90981609fcff4c77781846040516109b7929190611579565b60405180910390a15050505050505050565b6002602052805f5260405f205f91509050805f015f9054906101000a900473ffffffffffffffffffffffffffffffffffffffff1690806001015490806002015f9054906101000a900460ff16905083565b60055f9054906101000a900460ff1681565b5f602a905090565b5f80600190505b600a8111610af4578273ffffffffffffffffffffffffffffffffffffffff1660025f8381526020019081526020015f205f015f9054906101000a900473ffffffffffffffffffffffffffffffffffffffff1673ffffffffffffffffffffffffffffffffffffffff1603610ae15760035f8281526020019081526020015f205f9054906101000a900473ffffffffffffffffffffffffffffffffffffffff16915050610af9565b8080610aec906112de565b915050610a3b565b505f90505b919050565b5f819050919050565b610b1081610afe565b82525050565b5f602082019050610b295f830184610b07565b92915050565b5f604051905090565b5f80fd5b5f80fd5b610b4981610afe565b8114610b53575f80fd5b50565b5f81359050610b6481610b40565b92915050565b5f60208284031215610b7f57610b7e610b38565b5b5f610b8c84828501610b56565b91505092915050565b5f8115159050919050565b610ba981610b95565b82525050565b5f602082019050610bc25f830184610ba0565b92915050565b5f73ffffffffffffffffffffffffffffffffffffffff82169050919050565b5f610bf182610bc8565b9050919050565b610c0181610be7565b8114610c0b575f80fd5b50565b5f81359050610c1c81610bf8565b92915050565b5f805f60608486031215610c3957610c38610b38565b5b5f610c4686828701610c0e565b9350506020610c5786828701610c0e565b9250506040610c6886828701610b56565b9150509250925092565b5f60208284031215610c8757610c86610b38565b5b5f610c9484828501610c0e565b91505092915050565b5f81519050919050565b5f82825260208201905092915050565b5f5b83811015610cd4578082015181840152602081019050610cb9565b5f8484015250505050565b5f601f19601f8301169050919050565b5f610cf982610c9d565b610d038185610ca7565b9350610d13818560208601610cb7565b610d1c81610cdf565b840191505092915050565b5f6020820190508181035f830152610d3f8184610cef565b905092915050565b610d5081610b95565b8114610d5a575f80fd5b50565b5f81359050610d6b81610d47565b92915050565b5f805f8060808587031215610d8957610d88610b38565b5b5f610d9687828801610c0e565b9450506020610da787828801610b56565b9350506040610db887828801610d5d565b9250506060610dc987828801610c0e565b91505092959194509250565b5f60208284031215610dea57610de9610b38565b5b5f610df784828501610d5d565b91505092915050565b610e0981610be7565b82525050565b5f602082019050610e225f830184610e00565b92915050565b5f8060408385031215610e3e57610e3d610b38565b5b5f610e4b85828601610b56565b9250506020610e5c85828601610b56565b9150509250929050565b5f80fd5b5f80fd5b7f4e487b71000000000000000000000000000000000000000000000000000000005f52604160045260245ffd5b610ea482610cdf565b810181811067ffffffffffffffff82111715610ec357610ec2610e6e565b5b80604052505050565b5f610ed5610b2f565b9050610ee18282610e9b565b919050565b5f67ffffffffffffffff821115610f0057610eff610e6e565b5b610f0982610cdf565b9050602081019050919050565b828183375f83830152505050565b5f610f36610f3184610ee6565b610ecc565b905082815260208101848484011115610f5257610f51610e6a565b5b610f5d848285610f16565b509392505050565b5f82601f830112610f7957610f78610e66565b5b8135610f89848260208601610f24565b91505092915050565b5f67ffffffffffffffff821115610fac57610fab610e6e565b5b602082029050602081019050919050565b5f80fd5b5f610fd3610fce84610f92565b610ecc565b90508083825260208201905060208402830185811115610ff657610ff5610fbd565b5b835b8181101561101f578061100b8882610b56565b845260208401935050602081019050610ff8565b5050509392505050565b5f82601f83011261103d5761103c610e66565b5b813561104d848260208601610fc1565b91505092915050565b5f805f805f8060c087890312156110705761106f610b38565b5b5f61107d89828a01610c0e565b965050602061108e89828a01610b56565b955050604061109f89828a01610d5d565b945050606087013567ffffffffffffffff8111156110c0576110bf610b3c565b5b6110cc89828a01610f65565b935050608087013567ffffffffffffffff8111156110ed576110ec610b3c565b5b6110f989828a01611029565b92505060a061110a89828a01610b56565b9150509295509295509295565b5f60608201905061112a5f830186610e00565b6111376020830185610b07565b6111446040830184610ba0565b949350505050565b7f4e487b71000000000000000000000000000000000000000000000000000000005f52601160045260245ffd5b5f61118382610afe565b915061118e83610afe565b92508282039050818111156111a6576111a561114c565b5b92915050565b5f6111b682610afe565b91506111c183610afe565b92508282019050808211156111d9576111d861114c565b5b92915050565b7f4e487b71000000000000000000000000000000000000000000000000000000005f52602260045260245ffd5b5f600282049050600182168061122357607f821691505b602082108103611236576112356111df565b5b50919050565b61124581610be7565b82525050565b61125481610afe565b82525050565b61126381610b95565b82525050565b606082015f82015161127d5f85018261123c565b506020820151611290602085018261124b565b5060408201516112a3604085018261125a565b50505050565b5f60a0820190506112bc5f830186611269565b6112c96060830185610e00565b6112d66080830184610b07565b949350505050565b5f6112e882610afe565b91507fffffffffffffffffffffffffffffffffffffffffffffffffffffffffffffffff820361131a5761131961114c565b5b600182019050919050565b7f546869732066756e6374696f6e20616c776179732072657665727473000000005f82015250565b5f611359601c83610ca7565b915061136482611325565b602082019050919050565b5f6020820190508181035f8301526113868161134d565b9050919050565b7f436f6e646974696f6e616c2072657665727420747269676765726564000000005f82015250565b5f6113c1601c83610ca7565b91506113cc8261138d565b602082019050919050565b5f6020820190508181035f8301526113ee816113b5565b9050919050565b606082015f8201516114095f85018261123c565b50602082015161141c602085018261124b565b50604082015161142f604085018261125a565b50505050565b5f82825260208201905092915050565b5f61144f82610c9d565b6114598185611435565b9350611469818560208601610cb7565b61147281610cdf565b840191505092915050565b5f81519050919050565b5f82825260208201905092915050565b5f819050602082019050919050565b5f6114b1838361124b565b60208301905092915050565b5f602082019050919050565b5f6114d38261147d565b6114dd8185611487565b93506114e883611497565b805f5b838110156115185781516114ff88826114a6565b975061150a836114bd565b9250506001810190506114eb565b5085935050505092915050565b5f60a083015f83015161153a5f8601826113f5565b50602083015184820360608601526115528282611445565b9150506040830151848203608086015261156c82826114c9565b9150508091505092915050565b5f6040820190508181035f8301526115918185611525565b90506115a06020830184610b07565b939250505056fea26469706673582212205465cabdbb10fd7ab5c349f524281ac28f3a7e329ede907a8787a65051b4a20a64736f6c63430008160033","linkReferences":{}},"methodIdentifiers":{"alwaysReverts()":"b4f5537d","assetOwners(uint256)":"6999f843","assets(uint256)":"cf35bdd0","balanceOf(address)":"70a08231","balances(address)":"27e235e3","conditionalRevert()":"bcd0aaf8","counter()":"61bc221a","emitAssetTransfer(address,uint256,bool,address)":"4d6f9982","emitComplexAssetCreated(address,uint256,bool,string,uint256[],uint256)":"cd63468a","emitTransfer(address,address,uint256)":"23de6651","getAssetAmount(uint256)":"92eaff83","getConstant()":"f13a38a6","getMetadata(address)":"2a50c146","getOwner(address)":"fa544161","hiddenFunction()":"a718c0d9","incrementCounter()":"5b34b966","isAssetActive(uint256)":"22e900c2","metadata(address)":"2ba21572","setShouldRevert(bool)":"6813d787","shouldRevert()":"d3072d82","sum(uint256,uint256)":"cad0899b","totalSupply()":"18160ddd"},"id":0}