{"abi":[{"type":"constructor","inputs":[],"stateMutability":"nonpayable"},{"type":"function","name":"exampleFunction","inputs":[{"name":"","type":"bytes32","internalType":"bytes32"}],"outputs":[{"name":"","type":"uint256","internalType":"uint256"}],"stateMutability":"pure"},{"type":"function","name":"exampleFunction","inputs":[{"name":"","type":"uint256","internalType":"uint256"}],"outputs":[{"name":"","type":"string","internalType":"string"}],"stateMutability":"pure"},{"type":"function","name":"exampleFunction","inputs":[{"name":"","type":"string","internalType":"string"}],"outputs":[{"name":"","type":"string","internalType":"string"}],"stateMutability":"pure"},{"type":"event","name":"Trigger","inputs":[],"anonymous":false}],"bytecode":{"object":"0x608060405234801561000f575f80fd5b507f3d53a39550e04688065827f3bb86584cb007ab9ebca7ebd528e7301c9c31eb5d60405160405180910390a16104a4806100495f395ff3fe608060405234801561000f575f80fd5b506004361061003f575f3560e01c806331870cbc14610043578063934bc29d14610073578063bc2d73ba146100a3575b5f80fd5b61005d600480360381019061005891906101a0565b6100d3565b60405161006a91906101e3565b60405180910390f35b61008d60048036038101906100889190610226565b6100de565b60405161009a91906102db565b60405180910390f35b6100bd60048036038101906100b89190610427565b61011d565b6040516100ca91906102db565b60405180910390f35b5f6101009050919050565b60606040518060400160405280601181526020017f75696e74323536202d3e20737472696e670000000000000000000000000000008152509050919050565b60606040518060400160405280601081526020017f737472696e67202d3e20737472696e67000000000000000000000000000000008152509050919050565b5f604051905090565b5f80fd5b5f80fd5b5f819050919050565b61017f8161016d565b8114610189575f80fd5b50565b5f8135905061019a81610176565b92915050565b5f602082840312156101b5576101b4610165565b5b5f6101c28482850161018c565b91505092915050565b5f819050919050565b6101dd816101cb565b82525050565b5f6020820190506101f65f8301846101d4565b92915050565b610205816101cb565b811461020f575f80fd5b50565b5f81359050610220816101fc565b92915050565b5f6020828403121561023b5761023a610165565b5b5f61024884828501610212565b91505092915050565b5f81519050919050565b5f82825260208201905092915050565b5f5b8381101561028857808201518184015260208101905061026d565b5f8484015250505050565b5f601f19601f8301169050919050565b5f6102ad82610251565b6102b7818561025b565b93506102c781856020860161026b565b6102d081610293565b840191505092915050565b5f6020820190508181035f8301526102f381846102a3565b905092915050565b5f80fd5b5f80fd5b7f4e487b71000000000000000000000000000000000000000000000000000000005f52604160045260245ffd5b61033982610293565b810181811067ffffffffffffffff8211171561035857610357610303565b5b80604052505050565b5f61036a61015c565b90506103768282610330565b919050565b5f67ffffffffffffffff82111561039557610394610303565b5b61039e82610293565b9050602081019050919050565b828183375f83830152505050565b5f6103cb6103c68461037b565b610361565b9050828152602081018484840111156103e7576103e66102ff565b5b6103f28482856103ab565b509392505050565b5f82601f83011261040e5761040d6102fb565b5b813561041e8482602086016103b9565b91505092915050565b5f6020828403121561043c5761043b610165565b5b5f82013567ffffffffffffffff81111561045957610458610169565b5b610465848285016103fa565b9150509291505056fea2646970667358221220f510af729492328df1260e592035db6462a7a7d948201d9ae530b6258c5cf40364736f6c63430008160033","linkReferences":{}},"methodIdentifiers":{"exampleFunction(bytes32)":"31870cbc","exampleFunction(string)":"bc2d73ba","exampleFunction(uint256)":"934bc29d"},"id":2}